:020000040800F2
:1000000000000320810500085D1F00085F1F000835
:10001000611F0008631F0008651F00080000000042
:100020000000000000000000000000001171000846
:10003000671F000800000000A17100080D6A000899
:10004000D1050008D1050008D1050008D105000838
:10005000D1050008D10500088D1F0008D105000852
:10006000D1050008D1050008D1050008D105000818
:10007000D1050008D1050008D1050008D105000808
:10008000D1050008D1050008D1050008D1050008F8
:10009000D1050008D1050008D1050008D1050008E8
:1000A000D1050008D1050008D1050008D1050008D8
:1000B000D1050008D1050008D1050008D1050008C8
:1000C000D1050008D1050008D1050008D1050008B8
:1000D000D1050008D1050008D1050008D1050008A8
:1000E000D1050008D1050008D1050008D105000898
:1000F000D1050008D1050008D1050008D105000888
:10010000D1050008D1050008D1050008D105000877
:10011000D1050008D1050008691F0008D1050008B5
:10012000D1050008D1050008D1050008D105000857
:10013000D1050008D1050008D1050008D105000847
:10014000D1050008D1050008D1050008D105000837
:10015000D1050008D1050008D1050008D105000827
:10016000D1050008D1050008D1050008D105000817
:10017000D1050008D1050008D105000800000000E5
:10018000D1050008D1050008D1050008D1050008F7
:10019000D1050008D1050008D1050008D1050008E7
:0C01A000751F0008D1050008811F000831
:1001B00010B5054C237833B9044B13B10448AFF3A1
:1001C00000800123237010BDF0000020000000001B
:1001D000D443010808B5034B1BB103490348AFF3EF
:1001E000008008BD00000000F4000020D443010896
:1001F00001F0FF01102A2BDB10F0070F08D010F8D8
:10020000013B013A8B422DD010F0070F42B3F6D1DB
:10021000F0B441EA012141EA014122F007047FF0F4
:1002200000070023F0E80256083C85EA010586EA4B
:10023000010685FA47F5A3FA87F586FA47F6A5FA87
:1002400087F68EB9EED1F0BC01F0FF0102F0070293
:1002500032B110F8013B013A83EA010313B1F8D13E
:100260000020704701387047002D06BF354603381F
:10027000073815F0010F07D1013015F4807F02BF58
:10028000013015F4C03F0130F0BC0138704700BFA9
:1002900053B94AB9002908BF00281CBF4FF0FF31ED
:1002A0004FF0FF3000F06AB9ADF1080C6DE904CEF3
:1002B00000F006F8DDF804E0DDE9022304B0704741
:1002C0002DE9F047089D0C46002B4ED194468C45F5
:1002D0008646B2FA82F262D94AB1C2F12003914055
:1002E00020FA03F30CFA02FC194300FA02FE4FEA6B
:1002F0001C471FFA8CF6B1FBF7F44FEA1E4307FBCD
:10030000141143EA014304FB06F199420AD91CEB9C
:10031000030304F1FF3080F01281994240F20F8113
:10032000023C6344591A1FFA8EF3B1FBF7F007FB46
:10033000101143EA014300FB06F69E420AD91CEB6A
:10034000030300F1FF3180F0FC809E4240F2F9800F
:10035000634402389B1B40EA044000211DB1D34096
:100360000022C5E90032BDE8F0878B4205D90DB106
:10037000C5E9000100210846F5E7B3FA83F1002939
:1003800046D1A34202D39042C0F0F080861A64EBBB
:1003900003030120002DE6D0C5E90063E3E7002A4E
:1003A00040F09080A1EB0C044FEA1C481FFA8CF738
:1003B0000121B4FBF8F64FEA1E4308FB164443EA5A
:1003C000044307FB06F0984208D91CEB030306F12F
:1003D000FF3402D2984200F2CD8026461C1A1FFA42
:1003E0008EF3B4FBF8F008FB104443EA044300FB2F
:1003F00007F79F4208D91CEB030300F1FF3402D238
:100400009F4200F2B0802046DB1B40EA0640A5E791
:10041000C1F120068B4022FA06F71F4320FA06FCA2
:1004200004FA01F343EA0C03F44000FA01F8380C33
:100430004FEA1349B4FBF0FE1FFA87FC00FB1E4491
:1004400049EA04440EFB0CF9A14502FA01F20AD96B
:100450003C190EF1FF3A80F08480A14540F2818082
:10046000AEF1020E3C44A4EB09041FFA83F9B4FB7D
:10047000F0F300FB134449EA044403FB0CFCA445DD
:1004800007D93C1903F1FF3067D2A44565D9023B77
:100490003C4443EA0E40A0FB0293A4EB0C049C42B4
:1004A000CE469C4651D34ED055B1B8EB0E0364EB0B
:1004B0000C0404FA06F6CB401E43CC40C5E90064A8
:1004C000002150E7C2F1200320FA03F10CFA02FCEC
:1004D00024FA03F394400C434FEA1C4800FA02FE4E
:1004E0001FFA8CF7B3FBF8F008FB1031230C43EA3A
:1004F000014300FB07F1994208D91CEB030300F10B
:10050000FF362CD299422AD9023863445B1AA4B22E
:10051000B3FBF8F108FB113344EA034401FB07F392
:10052000A34208D91CEB040401F1FF3613D2A34205
:1005300011D902396444E41A41EA004139E704461A
:10054000F0E6084606E7C845AED2B9EB020E63EB0B
:10055000070C0138A8E73146EDE7034699E7304636
:10056000D4E7D6467FE7634402384DE70646234684
:1005700008460FE7023E634430E700BF704700BF04
:10058000DFF834D0002103E00C4B5B5843500431BA
:100590000B480C4B42189A42F6D30B4A02E0002358
:1005A00042F8043B094B9A42F9D303F0EFFD13F0F4
:1005B000A1F900F0EBFE704700000320A8870F08A8
:1005C00000000020F0000020F0000020CC290120D5
:1005D000FEE700F0B9BC00F027BD704710B504215C
:1005E000044612F0A9FE204610BD000038B50C4BA1
:1005F0000C4C18800C4B822019806368984740F699
:10060000110398420AD1094D23682C608220984733
:100610002B688220DB689847002038BD0120FCE76A
:10062000160100204C0000201401002018010020B9
:100630004FF4A071F020FFF7D9BF0000F7B5334D9C
:100640002B6804461B6982209847208000284AD0E6
:100650002B680DF106025B6901A982209847BDF85D
:10066000063040F6746293423FD9ADF80620BDF8DB
:100670000630D21A92B20A2A3DD90B23B2FBF3F20A
:10068000234B1B889A4201D9013B9AB2BDF8043032
:1006900040F6B8318B4230D8C3F571630E339BB24C
:1006A0000F21B3FBF1F31B4909888B4201D90139B2
:1006B0008BB2194E194D30682F68834281B28CBFBE
:1006C000591AC91AB8B2BA428CBF101A801A89B224
:1006D00080B201440529C8BF33603368C8BF2A60AF
:1006E00063802B68A38003B0F0BDB32B9CBFB42301
:1006F000ADF80630BBE70022C8E7C3F56D630833E9
:100700009BB20E2BCCD80023D3E700BF18010020EA
:100710001401002016010020100100200C0100200F
:1007200037B568460D461446FFF788FFBDF8000050
:1007300030B1BDF802302B60BDF8043023600120D9
:1007400003B030BD032821D8DFE800F0020B1219F6
:100750000F4B1A68B2FA82F2520904210D4804F0D4
:10076000C1B90B4B5A68B2FA82F252090821F5E777
:10077000074B9A68B2FA82F252091021EEE7044B55
:10078000DA68B2FA82F252092021E7E7704700BF27
:100790001C01002000100240032821D8DFE800F0EF
:1007A000020B12190F4B1A68003A18BF01220421DC
:1007B0000D4804F097B90B4B5A68003A18BF012254
:1007C0000821F5E7074B9A68003A18BF012210216B
:1007D000EEE7044BDA68003A18BF01222021E7E770
:1007E000704700BF1C0100200010024003280DD8F4
:1007F000DFE800F00206080A0421054804F077B992
:100800000821FAE71021F8E72021F6E7704700BF3A
:100810000010024008B5032811D8DFE800F0020AF2
:100820000C0E0421074804F057F9431E5842584162
:1008300008BD0821F6E71021F4E72021F2E70020A7
:10084000F3E700BF0010024070B5084D00240126F8
:10085000E0B2FFF7DFFF18B12B68012B18BF2E6045
:100860000134052C05F10405F2D170BD1C010020F6
:10087000012380F8781080F87930704700207047A5
:10088000034B4164003918BF01211970704700BF44
:100890005726012000207047836B0BB1084618478C
:1008A00070474FF6FF707047406803689B691847B0
:1008B000704770477047000070B5044600F054FC64
:1008C0002368D3F88850044BD4E90F122046AC4675
:1008D000BDE87040604700BF000000D008B5036865
:1008E0000446D3F880309847236820469B6F98478A
:1008F00000F0ECF8236820461B6F9847292001F090
:1009000007F800F0E3F8236820461B6F9847F8E7E4
:1009100010B5044609F0E2F923682046D3F8AC305C
:10092000BDE81040184700F011BC00F015BC00F005
:1009300041BC00F0E7BB00F041BC00F049BC00F056
:10094000EBBB08F02BBC10B57C21044612F0F4FC84
:10095000204610BD10B590F8341090F878400C4B3C
:100960008C421A7809D03AB90A4A0B491488088887
:1009700010800C8001221A7010BD002AFCD0054A9C
:1009800005491488088810800C800022F3E700BF16
:10099000502601204C2601204E26012070B50D4620
:1009A000194635B9094B0A4A0A4840F2D22112F0D9
:1009B000F1FCC0E90F52084B003A18BF01221A702F
:1009C0000368BDE87040D3F88C30184744440108F0
:1009D0007C440108CA4401085626012008B5094B89
:1009E0001B888B4203D8084B1B88934205D9074BC1
:1009F000074A08489E2112F0CDFC074B1980074B8F
:100A00001A8008BD4C2601204E2601200F45010802
:100A100072450108CA4401085226012054260120CB
:100A2000034690F87A0018B1586803681B681847A5
:100A300070470000012108B50022084606F073F84F
:100A40000A4B186028B90A4B0A4A28210A4812F0B2
:100A5000A1FC00220421012006F00DF9074B1860CB
:100A600018B9074B034A2C21F0E708BD30010020DC
:100A700090460108D9460108084701082C010020CA
:100A800061470108024B4FF0FF31186806F095B836
:100A900030010020014B186806F0BBB8300100207F
:100AA000024B0021186806F088B800BF3001002012
:100AB000FFF7F0BF03480449006800231A4606F018
:100AC00015B900BF2C0100200400002013B5084C0C
:100AD00000231A4601A9206806F039F920684FF072
:100AE000FF33002201A906F032F902B010BD00BFA9
:100AF0002C01002003685B6C1847012070470368D5
:100B00009B6A184782B0002301930D4B1A6B42F485
:100B100000021A631A6B02F400020192019A1A6928
:100B200042F400021A611A6922F400021A61054BAC
:100B3000054A1A61054B4FF080629A6002B0704717
:100B40000038024078170020DD0D000800E100E0C9
:100B500040F2EF3070470000054B0360054B4FF04B
:100B60008062C3F88820BFF34F8FBFF36F8F704749
:100B70000C49010800E100E010B504464FF45A6149
:100B8000FFF7EAFF204612F0D7FB204610BD000019
:100B900008B50A2809D8DFE800F006100E08080892
:100BA000081010101000022008BD054B054A064829
:100BB000872112F0EFFB0020F6E70120F4E700BFE9
:100BC000A3470108BE4701080948010838B50C468B
:100BD000887FFFF7DDFFA58AE28A164B21695863FB
:100BE00042EA05425A64628BD963521B1A64256833
:100BF000082D0ED19A611A615862207F0E4A42EA8E
:100C00000062DA61E2681A620C4A5961D9601A60BE
:100C100038BD0022D8611A61E1680A0A480902F465
:100C2000784200F4FC600243C1F3C4010A439A63B2
:100C3000034AECE700B00240090001000102020093
:100C40000102030008B50B280BD8DFE800F00612FC
:100C5000100A0A0A0A0808080808022008BD052028
:100C6000FCE7054B054A0648662112F093FB00207D
:100C7000F4E70120F2E700BFA3470108604801083C
:100C8000094801082DE9F04191F81D800C464046C5
:100C9000FFF7D8FFA77F05463846FFF7D3FF064684
:100CA0003846FFF775FFA18A628B444B521A1A64CB
:100CB0009A61228B521A1A61E28A586342EA01420F
:100CC0005A6421696268D963DA602068802828D074
:100CD000227F0FD8202867D0402865D004281AD05A
:100CE000364B45EA026545F40035B845DD6161D013
:100CF000334A44E0B0F5807F04D0B0F5007FEFD1F7
:100D0000304800E0304840EA0262DA61E2681A6284
:100D10005E62596132E045EA026242F40032DA6111
:100D2000F6E7A068021DDA62227F45EA026545F413
:100D30000035DD615E625961017841B1012921D040
:100D4000224B234A234840F2111112F023FBDA69A7
:100D5000418822F47F42013922F0100242EA012246
:100D6000DA610121154BDA6942F02002DA61DA69B1
:100D70009206FCD410229A600029B9D0164A1A6053
:100D8000BDE8F081B2F1FF01DA69408822F47F42C8
:100D900000F1FF3022F0100242EA002242F010027D
:100DA00018BF0121DA61DDE745EA0262034B42F434
:100DB0000032B4E740F20122E1E700BF00B0024098
:100DC00001020100090002000A000200AA4801080D
:100DD000C44801080948010801020200024B1B68CF
:100DE000586803685B6918475826012070B50446A7
:100DF00025460A4B0C30002660602672667245F864
:100E0000203B6022294609F0A7F804F55A63EE60FA
:100E100024359D42FBD1204670BD00BF0C4901081E
:100E20000120704738207047382303FB0100083049
:100E30007047382303FB01000830704701207047DA
:100E40004FF45D7070474FF45D7303FB0100083091
:100E500070474FF45D7303FB0100083070470120B9
:100E600070471020704700EB01100830704700EB0E
:100E7000011008307047084601F0ACBC10B5034BB8
:100E80000360044607F0E1FE204610BDC449010896
:100E900010B50446FFF7F2FF2046402112F04CFA4D
:100EA000204610BD10B5034B0360044607F0CDFE8D
:100EB000204610BD9049010810B50446FFF7F2FF27
:100EC00020464FF45F7112F037FA204610BD000043
:100ED00010B5034B0360044607F0B7FE204610BD73
:100EE0005C49010810B50446FFF7F2FF20461821BF
:100EF00012F022FA204610BD10B5084B03600446DC
:100F000000F56A70FFF7BAFF04F12C00FFF7CAFF83
:100F100004F11400FFF7DCFF204610BDF84901087A
:100F200008B50248FFF7E8FF08BD00BFE80F002042
:100F300010B50446FFF7E0FF20464FF4AA6112F017
:100F4000FBF9204610BD00002DE9F34101F0ACF89B
:100F5000054601F0ADF80024014623462846224606
:100F600000940FF057FB254B254A264D1A6020466A
:100F700002F098FB24480FF0B5FA2B68BFF35B8FA3
:100F8000DB0735D4284612F0D9F988B31F4C204B23
:100F9000236004F57D7604F1140004F12C0804F5B7
:100FA0006A776060C4F80880E760266107F04EFE4B
:100FB000184B6361404607F049FE174BE362384621
:100FC00007F044FE154BC4F8A83304F57A7002F01C
:100FD000E9FB224604F57A71304602F0D9FB30462F
:100FE00001F0F8FB0E4812F0F3F9284612F0B2F9BE
:100FF0000C4802B0BDE8F041FFF75EBCB42601200A
:10100000B0010020E40F002008000020E80F0020BD
:10101000F84901085C49010890490108C4490108E0
:10102000210F0008340100200148FFF757BC00BF22
:101030003401002070B5224E224C234D234B2360F7
:101040003046FFF7D3FE284610F044F9204B2148E4
:10105000DC6000224FF48071C3E912121E491A8627
:10106000C3E91A121D4999671D4983F858200B607E
:10107000F02101801B485A6601801B4883F87020CC
:101080004FF4A071C3E90422C3E90622C3E9082290
:10109000C3E90A22C3E90E22C3E91022C3E91422DC
:1010A000C3E917225A67C3E9016501800F4801802F
:1010B0000F490A70012283F834200E4A1A6070BD6D
:1010C00040020020E00F0020B40100203444010859
:1010D000340100204C260120010000010000010124
:1010E00058260120522601204E2601205426012098
:1010F00050260120C04501080148FFF72DBD00BF63
:1011000040020020034B902283F85A2383F858238F
:10111000704700BF00E100E0094A0A49D3680A4865
:10112000C3F30A03013B9BB20B801169C1F30A01AF
:10113000013901801364536B43F00103536370471B
:10114000006801403A15002038150020014BD3F803
:10115000AC00704700680140024B0122C3F8AC109C
:101160005A6270470068014070B5044608F06BF899
:1011700023685D6E0BF076FD01462046A847236884
:10118000054AD3F888502046AC460023BDE870409D
:10119000A2F51631604700BF00B004D008F03AB89D
:1011A00090F84B3013B1024B01221A7008F03EB890
:1011B0003C15002007F0F8BF08F059B9034B4FF079
:1011C00080629A604FF080729A60704700E100E0A0
:1011D000084B4FF08062C3F88820BFF34F8FBFF3F6
:1011E0006F8F4FF08072C3F88820BFF34F8FBFF32B
:1011F0006F8F704700E100E010B5144C236823B3F3
:10120000134B144A1B6C11888B4213D1124B198853
:1012100004F060FA226892F86A30013382F86A308A
:10122000FFF748FC206808F059FDBDE81040002099
:10123000FFF788BA04F04EFA206803681B6A9847E3
:10124000BDE810400020FFF7A7BA10BD58260120C6
:10125000006801403A1500203815002007B5064BFC
:10126000ADF806001B68054801220DF1060104F0E7
:101270007FFF03B05DF804FB0C0000202416002063
:1012800008B5012005F043FCFBE7000007B5144D4D
:10129000144C154E284603F06DF8204603F06AF80A
:1012A0000121284603F0E4F80121204603F0E0F88C
:1012B000284603F030F93080204603F02CF90B4B20
:1012C0001880338843EA00430948019300220A2327
:1012D00001A9006805F00AFD642005F018FCD8E7B4
:1012E000A8150020601500205C1500205A1500206C
:1012F0004415002030B595B0102200210AA812F044
:1013000050FA1422002103A812F04BFA00241D4BBE
:1013100001941A6C42F080521A641B6C03F08053E3
:101320000193019B184B02941A6842F440421A60E0
:101330001B6803F4404302930122029B4FF4803365
:10134000CDE9082302254FF48003CDE90E5308218F
:101350004FF4A873CDE9101308A804231393129532
:1013600004F0D6F90F23CDE903354FF4A0504FF424
:101370008053CDE90603052103A8059404F0A4FBDE
:1013800015B030BD00380240007000402DE98048A3
:101390009BB002F009FFFFF7ADFF142200210DA85A
:1013A000002412F0FEF9C64B00941A6BC548C64ED5
:1013B00042F010021A631A6B02F010020092009AB7
:1013C00001941A6B42F020021A631A6B02F0200299
:1013D0000192019A02941A6B42F080021A631A6B0E
:1013E00002F080020292029A03941A6B42F0040205
:1013F0001A631A6B02F004020392039A04941A6BA4
:1014000042F001021A631A6B02F001020492049A7C
:1014100005941A6B42F002021A631A6B02F0020280
:101420000592059A06941A6B42F040021A631A6BF1
:1014300002F040020692069A07941A6B42F00802E4
:101440001A631B6B03F00803079322463C21079B9A
:1014500003F048FB9D482246042103F043FB22464B
:101460009B484FF44051012503F03CFB4FF0030A29
:101470003C239448CDF840A00DA94FF0020B04275F
:10148000CDE90D350F9403F043FA9048CDF840B004
:101490000DA9CDE90D750F9403F03AFA4FF44053BE
:1014A0008B480DA9CDE90D35CDE90F4B03F030FA8E
:1014B00088480F940DA9CDE90D5403F029FA0DA920
:1014C0000C2385480F95CDE90D3403F021FA8348AC
:1014D000834B036003F010F9824A834B3462C6E900
:1014E000002330464FF48043C6E90434C6E9024481
:1014F000C6E9064403F0F2FC1021304603F02EFF4B
:101500002146304603F049FF7848794984624FF418
:101510008273C0E900134FF400761823C0E9066314
:101520000A23744EC362C0E90244C0E90444C0E91E
:10153000084404F0C1FD704BCDF834B04FF01009F1
:10154000C6E900354023C6E904934FF4C073C6E9E9
:1015500006344FF40063C6E908344FF40053B36215
:101560000DA907233046CDE9103ACDE90E374FF0EB
:101570000808C6E90247CDE912BB04F099FC4FF612
:10158000FF7209A93046CDE90A85089409950C94A3
:1015900004F0AEFC284602F033FE4FF6FF7209A9B4
:1015A0003046CDE909B8CDE90B5404F0A1FC4FF663
:1015B000FF7209A93046CDE909A8CDE90B7404F002
:1015C00097FC4FF40C730893089B0C934FF6FF7233
:1015D00009A93046CDE909780B9504F089FC40F261
:1015E0006A51304604F0A2FC342221460DEB020081
:1015F00012F0D7F8414E424B3461C6E9003409235A
:10160000C6E905351D2340F20D1CC6E9073A40F234
:101610004313C6E909C340F2171E40F24713304690
:10162000C6E90BE3C6E90244B48686F8364003F007
:1016300059FFFF21F022CDE912144FF0050A4FF4B3
:1016400080614FF4A073CDE90E24CDE9141ACDE9E1
:1016500016420DA922463046CDE9103B294E18937B
:101660000D94ADF864408DF8664004F006F8264B02
:1016700033601B6898473368244EDB689847244BD7
:101680003046C6E90034C6E902B4C6E90A4BC6E9E9
:101690000C4403F041F82946304603F0F5F8FEF714
:1016A00098FF4A4621460DA812F07BF8194E1A4BB6
:1016B000DFF868B03461C6E90034304630E000BF7E
:1016C00000380240001002402417002000080240A9
:1016D000000C02400000024000180240B817002031
:1016E00000300240005C0040A0860100241600206B
:1016F00000500140F0150020400100A07C160020A1
:1017000000680140401500201400002078170020D8
:1017100000B00240A8150020002001400100000F89
:101720004FF00073B360347686F82040F462C6F858
:1017300028B0F460F56186F83040756102F074FD00
:101740000D220DA93046CDE90D25264E0F9402F04D
:10175000E5FE21464A460DA812F023F8224A3461DC
:101760004FF000733046B360C6E90024C6E90AB4FE
:10177000347686F82040F460F56186F83040756173
:1017800002F052FD0DA93046CDE90DA50F9402F0EF
:10179000C5FE05F049F9154A2946404605F06BFAA1
:1017A000134B144A18603946484605F064FA124B48
:1017B000124A18602146124805F062F9114B124A8C
:1017C00018602146114805F05BF9114B114A186069
:1017D0002146114805F054F9104B186005F036F910
:1017E000FEE700BF6015002000210140504A0108BB
:1017F00048150020384A010844150020B04A010865
:101800008112000854150020684A01088D12000852
:101810004C1500208C4A0108D705000850150020FF
:10182000704770477FB5094B8DF817201B680293EE
:101830000DF117020123009201930A460146044864
:1018400003F0F4FB07B05DF804FB00BF10000020BC
:10185000241700207FB500238DF81730084B1B6834
:1018600002930A4601230DF11701009101930146ED
:10187000044803F06BFC9DF8170007B05DF804FB0B
:1018800010000020241700201FB5084C2468009287
:10189000CDE901340A4601230146054803F056FC10
:1018A000003818BF012004B010BD00BF1000002098
:1018B0002417002002F0A4BC10B5064C00222046DC
:1018C000042103F00FF920460122BDE81040042155
:1018D00003F008B90008024038B50B4D0446012258
:1018E0000A484FF4005103F0FDF800220421284675
:1018F00003F0F8F82046FFF7B1FC28460122BDE8C6
:101900003840042103F0EEB800080240000C024009
:1019100038B50B4D044600220A484FF4005103F03D
:10192000E1F800220421284603F0DCF82046FFF706
:1019300095FC28460122BDE83840042103F0D2B8C6
:1019400000080240000C0240F7B5144E144F054643
:101950000C4630460022042103F0C4F800224FF464
:101960000051384603F0BEF82846FFF777FC0D4BD0
:101970000D481B68224601A904F099FD3846012252
:101980004FF40051019C03F0ADF8304601220421D0
:1019900003F0A8F8204603B0F0BD00BF00080240E5
:1019A000000C02400C0000202416002002F028BC8D
:1019B0000268034B9A4201D102F010BC704700BF8D
:1019C000001000407047000082B00E4B00220092D1
:1019D000596C41F480415964596C01F48041009183
:1019E00000990192196C41F0805119641B6C03F04D
:1019F00080530193019B0F216FF0010002B002F0B0
:101A00003BBE00BF003802400268094B9A4282B0D8
:101A10000BD100230193074B1A6B42F480521A63D7
:101A20001B6B03F480530193019B02B0704700BF0E
:101A3000003002400038024010B514228AB004463B
:101A400000210DEB020011F0ACFE2368214A934205
:101A50001FD1214B2148002101915A6C42F4807220
:101A60005A645A6C02F480720192019A02911A6BC4
:101A700042F004021A631B6B03F004030293082173
:101A8000029B0323CDE9051305A902F041FF0AB02B
:101A900010BD134A9342FAD10F4B12480021039113
:101AA0005A6C42F400725A645A6C02F40072039247
:101AB000039A04911A6B42F001021A631B6B03F044
:101AC00001030493049B20220323CDE9052305A9E8
:101AD000DBE700BF00200140003802400008024060
:101AE000002101400000024007B50F4B02689A42F6
:101AF00016D10022A3F5F0430192196B41F40001C5
:101B000019631B6B03F40003019305215A20019B09
:101B100002F0B2FD5A2003B05DF804EB02F0DEBD26
:101B200003B05DF804FB00BF00B002402DE9F043B4
:101B3000044689B01422002103A811F032FE226865
:101B4000244B9A4243D1244C244800250095236B12
:101B500043F004032363236B03F004030093009B0F
:101B60000195236B43F001032363236B03F001030F
:101B70000193019B4FF012094FF400734FF00108DD
:101B80000327042603A9CDE90339CDE90587079684
:101B900002F0BEFE4FF480731148079603A9CDE909
:101BA0000339CDE9058702F0B3FE0295236C43F4B7
:101BB00000032364236C03F400030293029B236A53
:101BC00043F400032362236A23F40003236209B071
:101BD000BDE8F083005C004000380240000802408D
:101BE00000000240F0B599B004461422002107A875
:101BF00011F0D7FD30220DEB0200002111F0D1FDD4
:101C000022685E4B9A4240F0B78008230C93C023B1
:101C10001093042312930CA84FF40033159304F08F
:101C20001BF808B1FFF7CEFE554B56480024009430
:101C30005A6C42F080625A645A6C02F080620092E0
:101C4000009A01941A6B42F020021A631A6B02F098
:101C500020020192019A02941A6B42F001021A6367
:101C60001A6B02F001020292029A03941A6B42F07C
:101C700002021A631A6B02F002020392039A04949E
:101C80001A6B42F040021A631A6B02F0400204928F
:101C9000049A05941A6B42F004021A631A6B02F05C
:101CA00004020592059A06941A6B42F008021A6320
:101CB0001B6B03F00803069302250E26069B0B966A
:101CC0004FF4806307A9CDE90735CDE9094502F056
:101CD0001FFE41F658032C480B9607A9CDE907359E
:101CE0000927CDE9094502F013FE032327480B9786
:101CF00007A9CDE90735CDE9094502F009FE4FF402
:101D0000706322480B9607A9CDE90735CDE909454F
:101D100002F0FEFD4FF40C631D480B9607A9CDE9B8
:101D20000735CDE9094502F0F3FDC02319480B96AC
:101D300007A9CDE90735CDE9094502F0E9FD0823FA
:101D400015480B9607A9CDE90735CDE9094502F0FD
:101D5000DFFD4FF4A0530E480B9707A9CDE90735D7
:101D6000CDE9094502F0D4FD58202246052102F0B4
:101D700083FC582002F0B2FC19B0F0BD00680140AD
:101D800000380240001402400000024000040240FB
:101D90000018024000080240000C024010B5044642
:101DA00088B01422002103A811F0FBFC2268144B18
:101DB0009A4223D103F56843002101915A6C1148DE
:101DC00042F480125A645A6C02F480120192019A11
:101DD00002911A6B42F020021A631B6B03F020037E
:101DE0000293029B4FF4607202230321CDE9032387
:101DF0000523CDE9061303A902F08AFD08B010BD42
:101E000000500140001402402DE9F04186B000234B
:101E100003932B4B1C68002C4FD14FF00108C3F8E3
:101E20000080284B00949A6B274842EA08029A6384
:101E30009B6B03EA08030093022703260C25009BF3
:101E400001A94FF63F03CDE90137CDE9046502F062
:101E50005FFD1E48059501A9CDE90187CDE903463F
:101E600002F056FD48F233131948059501A9CDE952
:101E70000137CDE9034602F04BFD4FF68373154859
:101E8000059501A9CDE90137CDE9034602F040FDF2
:101E90004CF203731048059501A9CDE90137CDE94E
:101EA000034602F035FD60230C48059501A9CDE9F4
:101EB0000137CDE9034602F02BFD06B0BDE8F08105
:101EC000C017002000380240001402400008024001
:101ED0000018024000100240000C024000040240C2
:101EE00030B5014689B00022362002F0C5FB36200D
:101EF00002F0F4FB0025154B02951A6C144C42F0CD
:101F000010021A641B6C03F01003029301A903A8CA
:101F1000029B03F083FE03F071FE0E4B236040F240
:101F2000E733E36040000C4BB0FBF3F00138606036
:101F300020462561A56004F09FFC20B9204604F0EE
:101F400055FB09B030BD0120FBE700BF003802405F
:101F5000C41700200010004040420F007047FEE709
:101F6000FEE7FEE7FEE77047014804F07DBB00BFD7
:101F7000C4170020014803F023BB00BF7C160020DB
:101F8000014802F0F7BB00BF7817002013B50B4CD7
:101F9000206804F00CFF012809D841238DF8073090
:101FA0002068C82300220DF1070104F09FFE0120E4
:101FB00002B0BDE8104002F0A5BD00BF48150020EA
:101FC0000120704708B511F08FFC162303604FF015
:101FD000FF3008BD08B511F087FC16230360FEE74B
:101FE00070B50D4614460E46731B9C4201DC20461C
:101FF00070BDAFF3008006F8010BF5E770B50D4634
:1020000014460E46731B9C4201DC204670BD16F838
:10201000010BAFF30080F5E74FF0FF3070474FF44E
:1020200000534B600020704701207047002070472C
:102030000A4A116808B5034609B9094911601068D0
:10204000694603448B4206D911F04EFC0C23036011
:102050004FF0FF3008BD1360FCE700BF0C180020F4
:10206000D0290120704710B50421044611F064F90D
:10207000204610BD08B5032913D8DFE801F0020699
:102080000A0E01F05BFB006808BD01F057FB4068D9
:10209000FAE701F053FB8068F6E701F04FFBC068F8
:1020A000F2E70020F0E7000000487047E84A010826
:1020B0000D20704713B5002451B1036801948DF8C9
:1020C000034001AA9C680DF10303A04702B010BDB4
:1020D0000846FBE7C0897047008A7047C088704790
:1020E00080887047807A00F07F007047807AC0094E
:1020F00070470020704700009FED010A704700BF45
:1021000000000000704710B50821044611F014F9D2
:10211000204610BD0020704781807047C180704705
:102120000181704741817047704770477047704721
:10213000704710B4C4880368121B84885B6D091B48
:1021400012B25DF8044B09B218474FF6FF73838152
:102150004FF0FF3303621368C3611060704770472C
:10216000704700F598730868496803C37047704763
:1021700070474160704710B50022B1F90840B1F9CD
:102180000A10028042808480C18010BD7047704771
:10219000064BC0F84C310023C0F8503100F5A27353
:1021A000C0F84801C0F84031704700BF2926000838
:1021B00001230372704770477047704770470146AC
:1021C0004068036810315B6E184701464068036839
:1021D00010311B6E1847704710B4C2684168541024
:1021E000034601EB6200D20748BF0A599B685DF8BD
:1021F000044B48BFD35818470346406830B19A682B
:102200001AB9D86800F0010070470120704710B576
:102210000C21044611F090F8204610BD10B5102195
:10222000044611F089F8204610BD10B54FF4AE7188
:10223000044611F081F8204610BD10B5382104463F
:1022400011F07AF8204610BD10B52821044611F08F
:1022500073F8204610BD10B50AF004FD0368BDE810
:102260001040DB6B184790F8252012B103685B69BA
:102270001847704737B50446807A637A0130C0B298
:102280009842A07205D9012323720023A37203B0E0
:1022900030BDB4F90C2000210CF0B8F9C30706D505
:1022A00000284FF6FF73C8BF0123184400B2144B37
:1022B000E0811988258B83B21248B0F90000ADF88F
:1022C0000600CA1A60682B445B1A12B2ADF80430DB
:1022D00003682283ADF8002000221B69ADF80220BC
:1022E00069469847A37A012BD1D1074B1B78002B65
:1022F000CDD00AF0B7FC03B0BDE830400AF0B8BC5E
:102300004C2601204E2601205626012090F825203B
:102310001AB190F8242002B11860704710B5044635
:10232000D0F8400158B10368DB68984738B1D4F859
:10233000400103689B6898470023C4F8403110BDF2
:102340002DE9F14FD0E9556A0746B06803681B6A6A
:102350009847B0F55D7F05D2444B454AA3214548D7
:1023600011F018F8706803681B6A98470F2803D8A3
:10237000414B3F4AA421F2E7F06803681B6A984783
:102380000B2803D83D4B3A4AA521E8E70AF06AFC3E
:10239000DFF8F09004300AF0B2FCD9F8000010B178
:1023A0000368DB689847D9F8000010B103681B6820
:1023B0009847DFF8D480D8F8000010B103685B6953
:1023C0009847D7F83C0110B103685B689847D8F884
:1023D000000010B103681B689847D7F83C0110B1A2
:1023E00003689B689847F068036800215B6A984718
:1023F0004FF0000B224BC0F804B0044680F808B040
:102400000360B068036859465B6A9847054601F067
:10241000BFFA7068036859465B6A984729460646C2
:1024200001F042FA331DC7F83C61CAF808302B6846
:10243000C6F808A02846DB68C9F80040C8F8005074
:10244000EE639847336830461B6898472146284614
:102450000CF0D6F8236820461B69984723685B690F
:10246000204601B0BDE8F04F184700BFFC4B010803
:102470008A4C01085C4D0108A34D0108464E010835
:102480007C51010898260120942601202DE9F74F60
:10249000D0E955BA0746DBF8080003681B6A98477D
:1024A000B0F5C47F05D2554B554AA321554810F0CD
:1024B00071FFDBF8040003681B6A98470F2803D8F4
:1024C000514B4F4AA421F1E7DBF80C0003681B6A6B
:1024D0009847372803D84D4B494AA521E6E70AF02B
:1024E000C1FBDFF83C9104300AF009FCD9F8000088
:1024F00010B10368DB689847D9F8000010B1036891
:102500001B689847DFF81C81D8F8000010B10368F9
:102510005B699847D7F83C0110B103685B6898473E
:10252000D8F8000010B103681B689847D7F83C0141
:1025300010B103689B689847DBF80C000368002122
:102540005B6A9847324B036004464FF4A053038103
:1025500000254FF480734560857263632D4B2361C2
:102560002D4BE581B3F900102C4BA181B3F900602C
:10257000C4E90555C4E90755C4E90955C4E90B5533
:1025800010300190FFF7CCFD01983146FFF7CAFDEE
:10259000DBF80800036829465B6A9847064601F0A5
:1025A00051F9DBF80400036829465B6A9847314615
:1025B000054601F019F92B1DC7F83C51CAF808303F
:1025C0003368C5F808A03046DB68C9F80040C8F891
:1025D0000060F56398472B6828461B68984721469A
:1025E00030460CF00DF8236820461B699847236895
:1025F0005B69204603B0BDE8F04F1847FC4B01086B
:10260000E94E01085C4D0108A34D0108464E010842
:10261000A0510108A85001084C2601204E26012097
:1026200098260120942601202DE9F14FD0E9556A22
:102630000746B06803681B6A9847B0F5C47F05D2A7
:10264000444B454AA321454810F0A4FE7068036836
:102650001B6A98470F2803D8414B3F4AA421F2E751
:10266000F06803681B6A98470B2803D83D4B3A4A29
:10267000A521E8E70AF0F6FADFF8F09004300AF056
:102680003EFBD9F8000010B10368DB689847D9F821
:10269000000010B103681B689847DFF8D480D8F8B1
:1026A000000010B103685B699847D7F83C0110B18E
:1026B00003685B689847D8F8000010B103681B688E
:1026C0009847D7F83C0110B103689B689847F068B9
:1026D000036800215B6A98474FF0000B224BC0F85B
:1026E00004B0044680F808B00360B0680368594637
:1026F0005B6A9847054601F0A5F87068036859467B
:102700005B6A98472946064601F06EF8331DC7F804
:102710003C61CAF808302B68C6F808A02846DB6878
:10272000C9F80040C8F80050EE6398473368304657
:102730001B689847214628460BF062FF2368204615
:102740001B69984723685B69204601B0BDE8F04FDC
:10275000184700BFFC4B0108CD4F01085C4D010834
:10276000A34D0108464E01087C510108982601201E
:1027700094260120F8B5044617460E460AF05CFB85
:10278000104B0025C4E955760F4E1C60C4E9535523
:102790000E4B306823600E4BC4E9513503680121AC
:1027A0009B68C4E94F559847284600F07BFF336883
:1027B00093F858200AB1D86C00B9986810F070F8F6
:1027C0002046F8BDA42601205826012028510108E2
:1027D00010510108064BC0F84C310023C0F85031AD
:1027E00000F5A273C0F84801C0F84031704700BF3F
:1027F00029260008064BC0F84C310023C0F85031A0
:1028000000F5A273C0F84801C0F84031704700BF1E
:102810008D240008064BC0F84C310023C0F850311D
:1028200000F5A273C0F84801C0F84031704700BFFE
:1028300041230008406A7047806A704770478B8860
:10284000C0690A68DB0A50F823001044704710B5CD
:102850000446BAB1107B68B1537BD27A1B0203F4F1
:10286000E0631A43236A03EB82031A888A4202D187
:1028700093F9020010BD05D8013880B20433002856
:10288000F3D1F7E70020F5E710B52C21044610F04E
:1028900053FD204610BD000030B58BB00446BDF896
:1028A00060500895BDF85C5007959DF8505006950E
:1028B0009DF84C5005959DF8485004959DF844505E
:1028C00003959DF8405002959DF83C500195BDF848
:1028D000385000950BF0EEFA064B2360159BE36130
:1028E000169B2362199B63621A9BA36220460BB05E
:1028F00030BD00BFC4510108704770477047704732
:10290000704730B50368018185B06D460146D3F844
:10291000843004462846984795E807003C3484E80C
:10292000070005B030BD30B50368418185B06D4604
:102930000146D3F8843004462846984795E80700B6
:102940003C3484E8070005B030BD0022028042809C
:102950008280C280704780F83610704770B5036877
:1029600004461B6B154698472368294620465B6E34
:10297000BDE87040184700207047806C7047704772
:1029800070477047704730B4C268446855100346BA
:1029900004EB6200D20748BF62599B6830BC48BF55
:1029A000D35818470346406830B19A681AB9D868B6
:1029B00000F0010070470120704710B54C2104461B
:1029C00010F0BAFC204610BD10B51021044610F0DE
:1029D000B3FC204610BD10B54FF4C271044610F090
:1029E000ABFC204610BD08B5FFF73DFC08BD00005C
:1029F000036870B55E6B124B1B6804468DB22BB931
:102A0000104B114A6C21114810F0C4FC1049828D02
:102A10000988914203D80F4B0B4A6D21F3E713F855
:102A200012200D4B1B6853F8220003681B6B98475C
:102A3000291A3346204609B2BDE87040184700BF46
:102A4000A82601202452010866520108A15201085B
:102A5000AC260120E8520108B02601206C308842E3
:102A600008B505D10AF0FEF8BDE80840FFF7D2BE70
:102A700008BD00224FF0FF31C0E90021826070479D
:102A800070B5036804461B6B1546984723682946B2
:102A900020465B6BBDE87040184700000022C0E98B
:102AA0000122C0E90322C0E90522C0E907224FF450
:102AB00080728284014A0260704700BF7C53010823
:102AC00010B526220446002110F06BFE2046FFF7C9
:102AD000E5FF0A4B23600A4BA3624FF6FF73A38501
:102AE0004FF47F020023C4E90C3223874FF0FF32FA
:102AF000C4E91023E363204610BD00BFD859010884
:102B0000F44B01082DE9F04F044689B02646002514
:102B10000BF0CAFB834BE56346F8403B294626226F
:102B2000304610F03EFE3046FFF7B8FF04F16C0B64
:102B30007D4B2364FF272946262284F86670A5660C
:102B4000584610F02EFE5846FFF7A8FF774AE26677
:102B5000012304F1A0084FF6FF7284F89030294653
:102B6000C4F8945084F89850A4F89A20A4F89C20B3
:102B700084F89E20ADF818204046262210F011FE61
:102B80004046FFF78BFF6A4AC4F8A020BDF8182022
:102B9000A4F8C62004F1CC0A06A9404684F8C870FF
:102BA00007F00BFF04F58A775046FFF789FF384698
:102BB000FFF786FF5F4AC4F814215F4AC4F85C51EE
:102BC000C4E95D245D4A2946C4E95F2530462A46AA
:102BD000FFF756FF3046F021FFF7A2FA30464FF4D8
:102BE000A071FFF79FFA04F104094FF07F423146CC
:102BF000A266484606F03CF8AB2214215846FFF77F
:102C00003FFF0722ADF81420ADF8182005A906AA49
:102C1000584607F099FD04F5BA72C4F89420594655
:102C2000484606F025F8712240461C21FFF728FF90
:102C3000404606A9ADF8185007F0BFFE4146484689
:102C400006F016F87D2222215046FFF719FF6E4646
:102C50003B4AC4F8FC20A4F800515146304607F026
:102C60006DFA96E8070004F5847C8CE80700DFF82D
:102C7000F880ADF81C5006A95046CDF8188007F032
:102C800005FD5146484605F0F3FF7D228521384673
:102C9000FFF7F6FE2B4AC4F84421D4F81421A4F817
:102CA0004851D2F8842039463046904796E80700CC
:102CB00004F5A87585E80700234A126804F5B07585
:102CC00001232AB9214B224A6021224810F062FBDD
:102CD000214A1288012A03D8204B1D4A6121F4E7BA
:102CE00019461F4B186800F019FD1E4A03460A21B9
:102CF00028460DF0E9FB3846C4F85C5107F0A6FC05
:102D0000022306A93846ADF81C30CDF8188007F02C
:102D1000BDFC4846394605F0ABFF204609B0BDE88A
:102D2000F08F00BF8C540108685A0108D05A01087E
:102D3000445B0108E4530108745401085D2A00084B
:102D40001313EBFF2525E6FFA826012024520108D6
:102D500026530108A1520108AC260120E8520108BF
:102D6000B426012071530108F44B0108806A7047B2
:102D70007047704770477047704730B4C268446806
:102D80005510034604EB6200D20748BF62599B68A6
:102D900030BC48BFD35818470346406830B19A68E2
:102DA0001AB9D86800F0010070470120704790F808
:102DB0002D3080F8603070470146383091F82C3063
:102DC00013B1363107F0F9BD3431FBE710B564219A
:102DD000044610F0B1FA204610BD10B5102104468B
:102DE00010F0AAFA204610BD10B54FF454710446F5
:102DF00010F0A2FA204610BD10B50446006B50B189
:102E00000368DB68984730B1206B036821469B68F4
:102E1000BDE81040184710BD0B7970B590F82C60D4
:102E200004460D460BB916B170BD002EFCD0B3FAA6
:102E300083F35B0984F82C3023682046D3F88C3068
:102E40009847236820465B699847002EECD02B7981
:102E5000012BE9D123682046D3F88830BDE87040C3
:102E6000184700F5BA738B4210B5044609D109F032
:102E7000F9FEFFF7BFFC23682046DB6ABDE810407F
:102E8000184710BD0B882DE9F04183861388B0F9EF
:102E90000850C3860446104690460DF0CFFBB4F9A7
:102EA0000A30074603EBD3734046C3F34F060DF0D9
:102EB000F9FB05EBD575C5F34F0500EBD07007EBBB
:102EC000D777A6EB6002A5EB670104F1380012B2D8
:102ED00009B2FFF7D5FD23682046D3F88C30BDE852
:102EE000F041184770B504461D46BDF91060FFF764
:102EF000C7FD2368294620469B6B984723683146C7
:102F00002046DB6BBDE870401847000038B526222C
:102F100004460D46002110F044FC2046FFF7BEFD9C
:102F2000064B23602B88E384FF23204684F8283057
:102F3000294607F042FD204638BD00BF445B01082A
:102F40002DE9F04F044695B0A04600250BF0ACF9F2
:102F5000D34BE56348F8403B26222946404610F013
:102F600020FC4046FFF79AFDCE4B236404F16C0B26
:102F7000FF234FF6FF7604F1980A84F8663012A911
:102F8000A566584604F1C409ADF84860FFF7BEFFD6
:102F900012A95046ADF84860FFF7B8FF12A948469D
:102FA000ADF84860FFF7B2FF04F1F00312A918462C
:102FB0000293ADF84860FFF7A9FF04F58E7312A9DC
:102FC00018460393ADF84860FFF7A0FF04F5A4731B
:102FD00012A918460493ADF84860FFF797FF04F56F
:102FE000BA7305934FF47F43A4F8A03140F2011364
:102FF000A4F89831AC4BC4F8743104F5D6774FF08F
:10300000FF33C4F8A83112A93846C4E95E55C4E9B3
:103010006055C4E96255C4E96455C4F89C51C4F8CC
:10302000A451ADF84830FFF771FF3946059805F017
:103030001FFE04F5EC73184604F5017712A90693F8
:10304000ADF84860FFF762FF26222946384610F0A7
:10305000A8FB3846FFF722FD944BC4F82C324FF4FE
:103060007F024FF0FF33C4E99135C4F8382204F5EC
:1030700014738F4AC4F80422A4F8306212A91846C7
:10308000C4F83452A4F83C52C4F84052C4F84C522C
:103090000793ADF84860FFF739FF04F51F7312A9D5
:1030A00018460893ADF84860FFF730FF04F52A731F
:1030B00012A918460993ADF84860FFF727FF04F5F9
:1030C000357312A918460A93ADF84860FFF71EFF42
:1030D00004F5407312A918460B93ADF84860FFF74A
:1030E00015FF744BC4E9D034734BC4E9D2354FF4A7
:1030F000A0732A46404600932946F023261DFFF779
:10310000F1FE4FF07F43A3664146304605F0B0FD27
:103110002A4629465846FFF7B3FC0C2312A9584605
:10312000ADF8483007F049FC5946304684F89150D4
:1031300005F09EFD2A4650462946FFF7A1FC0B23C9
:10314000504612A9ADF8483007F037FC51463046DA
:1031500084F8BD5005F08CFD2A4648462946FFF705
:103160008FFC4FF00A08484612A9ADF8488007F0D6
:1031700024FC4946304684F8E95005F079FD2A469A
:1031800002982946FFF77CFC09230298ADF84830E5
:1031900012A907F012FC029984F81551304605F087
:1031A00067FD2A4603982946FFF76AFC082303981F
:1031B000ADF8483012A907F000FC039984F841519A
:1031C000304605F055FD7E2211460498FFF758FC65
:1031D00005230498ADF8483012A907F0EEFB0499D6
:1031E000304605F045FD01230598ADF8443012AA9C
:1031F00011A9ADF84830FFF745FE04F55073C4F847
:10320000A43120234FF48D720598C4F8B051CC211D
:103210000093FFF767FE0599304605F029FD382237
:1032200006983F21FFF72CFC4FF0030A0698ADF8F3
:1032300048A012A907F0C1FB0699304605F018FD19
:1032400014232A460093AD2143233846FFF74AFE54
:103250001A4BC4F83432D4F80432A4F838520DF1C1
:1032600030094846D3F884303946984799E8070032
:1032700004F5107383E80700114B1B6804F54B79C4
:103280002BB9104B104A6021104810F083F8104BF6
:103290001B88032B20D80F4B0B4A6121F4E700BF9A
:1032A00078550108685A0108C0540108F44B010818
:1032B000E453010860550108632E00080A0AF5FF6F
:1032C000A82601202452010826530108A152010812
:1032D000AC260120E8520108354B5146186800F031
:1032E0001DFA344A0346414648460DF0EDF84FF0CA
:1032F0000408314BC4F84C9212A938461293ADF829
:103300004C8007F0C3F93946304605F0B1FC2A4637
:1033100007982946FFF7B4FB02270798ADF84870D5
:1033200012A907F04AFB0799304605F0A1FC2A468E
:1033300008981221FFF7A4FB0898ADF8487012A96D
:1033400007F03BFB0899304605F092FC2A460998A5
:103350002421FFF795FB0998ADF8487012A907F0F2
:103360002CFB0999304605F083FC78220A982946FF
:10337000FFF786FB06230A98ADF8483012A907F03C
:103380001CFB0A99304605F073FCFA220B98A42125
:10339000FFF776FB0B98ADF8488012A907F00DFBFC
:1033A00030460B9905F064FC204615B0BDE8F08F5F
:1033B000B426012071530108F44B01087047000046
:1033C00030B5164D2C68BFF35B8F14F001048FB03D
:1033D00020D128460FF0B2FFE0B13F230993104BF4
:1033E0000893104B104911480A940122CDE9064375
:1033F0000423CDE903320A230093CDE90B44CDE940
:1034000001440594FFF748FA09480FF0E1FF284608
:103410000FF0A0FF05480FB030BD00BF101800200E
:1034200090B1010840B3010808A701081418002052
:10343000BD3300087047000030B5174D2C68BFF34E
:103440005B8F14F001048FB022D128460FF076FF75
:10345000F0B13F230993114B0893114B07930123BC
:10346000CDE9053304930423CDE9024314230D4928
:1034700000935F221823CDE90B440B480A94019472
:10348000FFF70AFA09480FF0A3FF28460FF062FF82
:1034900005480FB030BD00BF4018002094B10108AE
:1034A00044B3010818A70108441800203534000867
:1034B0007047000030B5164D2C68BFF35B8F14F0D9
:1034C00001048FB020D128460FF038FFE0B13F2330
:1034D0000993104B0893104B104911480A9401228C
:1034E000CDE906430423CDE9033228230093CDE937
:1034F0000B44CDE901440594FFF7CEF909480FF0DC
:1035000067FF28460FF026FF05480FB030BD00BF0B
:103510007018002038B3010848B301084CAC01080A
:1035200074180020B13400087047000030B5174D02
:103530002C68BFF35B8F14F001048FB023D12846B1
:103540000FF0FCFEF8B13F230993114B0893114B88
:1035500007930323CDE9053301220423CDE9033288
:1035600016230D4900935F221B23CDE90B44CDE9BF
:1035700001440A480A94FFF78FF909480FF028FF21
:1035800028460FF0E7FE05480FB030BDA018002018
:103590003CB301084CB301085CAC0108A41800203E
:1035A0002935000800207047002070470EB403B58D
:1035B00003AB002153F8042B01930AF0C7FA02B0C1
:1035C0005DF804EB03B070470CB407B504AB53F8D7
:1035D000042B01930AF0BAFA03B05DF804EB02B0D1
:1035E0007047000010B504460BF0C8F8E38E04EBFA
:1035F00043035884636C5BB3238F2BB9174B184A72
:10360000C52118480FF0C6FE10B320460CF0B3F9E0
:10361000238F012B03D8144B144ACB21F1E7E28E00
:10362000531C9BB2092B194688BFA3F10A0104EB76
:10363000410140F63F10498C814209D10A2B04EB2D
:10364000420228BF002304EB4303508C588451846A
:103650002046BDE810400CF091B800BFA855010805
:10366000B15501085C560108A6560108B456010878
:1036700010B504460CF049F82046BDE810400BF0A8
:1036800079B810B586B002AC84E806001A460AABD9
:1036900005930193099B00932146089B08F068FE5F
:1036A00006B010BD38B518BB124B13481C6813493F
:1036B000B4B1226822440260626822440A60A268AF
:1036C00014440F4B00221A8000F038F8054600F031
:1036D00033F80C4B1C600C4B1D600C4B188007E042
:1036E0000B4B03600B4B0B600B4B1C68002CE8D1A1
:1036F00038BD00BFDC180020D4180020D0180020EE
:10370000D8180020A8260120B0260120AC260120D0
:1037100064B3010850B3010884B30108044B1B686B
:1037200053F82100034B1B6803EB4000704700BFB8
:10373000D0180020D418002005207047004870479A
:10374000E018002010B5FFF777FE064C2060FFF769
:10375000B1FE6060FFF734FEA060FFF7E7FEE060B7
:1037600010BD00BFE0180020704710B54FF4AE71D7
:1037700004460FF0E1FD204610BD10B50446D0F818
:10378000580100F017F82046BDE8104009F014BBBE
:1037900010B50446FEF7EEFF014B2360204610BD36
:1037A0009057010802490022C0E900218260704759
:1037B0005F00A00003680133036070478180704799
:1037C000B0F904007047B0F906007047704704383C
:1037D0007047704710B5102104460FF0ADFD20462C
:1037E00010BDA0F10400F5E700228260024A0260E9
:1037F00018324260C1607047E4570108704700000A
:10380000D0F8842103680132C0F88421014ADB6AC0
:10381000118818475815002010B5034B0360044663
:10382000FFF7ADF8204610BD1058010810B504464A
:10383000FFF7F2FF20464FF4C4710FF07DFD2046E4
:1038400010BD000010B50446FFF75CF9034B236080
:103850000023C4F88431204610BD00BF1058010871
:10386000FFF78EB838B5044600F5B0750B4628460C
:10387000054A0A210CF028FEC4F85C5104F58A7050
:10388000BDE838400AF069BA0458010870470438A6
:103890007047704710B5102104460FF04DFD2046CB
:1038A00010BDA0F10400F5E700228260024A026028
:1038B00018324260C1607047485801088068FFF7BD
:1038C0007DBF8068FFF77CBF8068FFF77CBF00008A
:1038D000D0F868331422B3FBF2F30D4A10B513800D
:1038E0004FF44073A0F870330E23C0F8DC31036846
:1038F00004460021C0E9D9111B6BC0F86C13C0F855
:103900004C119847236820465B6BBDE81040184770
:1039100058150020B2F90400B2F9083010B5B1F919
:10392000044003449C4215DAB1F90830234498421C
:1039300010DAB2F90600B2F90A30B1F906400344D0
:103940009C4207DAB1F90A3023449842ACBF002008
:10395000012010BD0020FCE7B0F96413C06BFFF735
:10396000ADBF000010B5034B03600446FFF701FA3A
:10397000204610BD7058010810B50446FFF7F2FF4D
:1039800020464FF45D710FF0D7FC204610BD0000BB
:1039900010B50446FFF7D4FA054B23600023C4E9B1
:1039A000DA334FF44073A4F87033204610BD00BFE3
:1039B0007058010810B50446C06BFFF782FFA4F8E9
:1039C0006403E06BFFF780FFA4F866032046FFF76F
:1039D000D1F9D4F86433C4F84C310E23C4F8DC3187
:1039E0004FF4F003C4F8D832074BC4F80433074A45
:1039F000236811881B6B20469847236820465B6B21
:103A0000BDE81040184700BFA000FA00581500207C
:103A100038B5D0F8683305220133B3FBF2F202EB7C
:103A200082029A1A013A0446C0F868330021012044
:103A3000032A03D8DFE802F0787D828784F8410109
:103A400084F891104FF4A0715B00B3FBF1F201FB1D
:103A5000123302F00302C2EB0212910089B201F1AB
:103A60000F00A4F8DE319BB2A4F8DC01A3F114002E
:103A7000C3F59B73A4F806334F4BA4F8D8021B88F8
:103A800052000F325031962BA4F8DA22A4F8041316
:103A90005ED9B4F96433591D05DB033B1BB2A4F8AE
:103AA0006433A4F84C31454B1B88962B58D9B4F994
:103AB0006633E92B05DC03331BB2A4F86633A4F8A4
:103AC0004E3194F870232368C2B904F5A475DB6BFA
:103AD00004F5EC72294620469847002848D094F80F
:103AE0007133013B84F87133236820465B6B984740
:103AF000012384F870330023C4F86C33D4F86C339A
:103B00000133DA07C4F86C3305D494F86D2182F0E0
:103B1000010284F86D213B2B81BF002384F87033B0
:103B2000012384F86D3139E084F8150184F84111DE
:103B300088E784F8E90084F8151183E784F8BD006C
:103B400084F8E9107EE784F8910084F8BD1079E7E5
:103B5000592BA8D8B4F96433C42BA4DC03339DE7F4
:103B6000592BAED8B4F96633002BAADD033BA3E78B
:103B7000236804F54072DB6B2946204698470028ED
:103B8000ADD1236804F53572DB6B29462046984792
:103B90000028A4D194F87033002BAFD12368D4F857
:103BA00068131B6B20461422B1FBF2F19847201DCD
:103BB000BDE838400AF0D1B85C1500205A15002045
:103BC00038B5044600F554750B462846054A0A21C7
:103BD0000CF07AFCC4F84C5204F50170BDE8384092
:103BE0000AF0BBB80458010810B590F871330446C8
:103BF000032B0AD8DFE803F002171E2703689B6B2C
:103C0000984709F02FF8FEF7E5FD04F514700AF067
:103C1000A4F804F51F700AF0A0F804F52A70BDE8B6
:103C200010400AF09AB8012380F87532002384F816
:103C3000A13205E0012380F8753280F8A13200231B
:103C400084F8CD32E1E7012380F87532EFE7F02008
:103C500070474FF4A07070472920FDF759BE282007
:103C6000FDF756BE08B5FDF727FECA20FDF750FE4A
:103C7000C320FDF731FE0820FDF72EFE5020FDF792
:103C80002BFECF20FDF744FE0020FDF725FEC120CE
:103C9000FDF722FE3020FDF71FFEED20FDF738FE78
:103CA0006420FDF719FE0320FDF716FE1220FDF734
:103CB00013FE8120FDF710FEE820FDF729FE852088
:103CC000FDF70AFE0020FDF707FE7820FDF704FE51
:103CD000CB20FDF71DFE3920FDF7FEFD2C20FDF762
:103CE000FBFD0020FDF7F8FD3420FDF7F5FD022077
:103CF000FDF7F2FDF720FDF70BFE2020FDF7ECFDB0
:103D0000EA20FDF705FE0020FDF7E6FD0020FDF7A7
:103D1000E3FDB120FDF7FCFD0020FDF7DDFD1B20DC
:103D2000FDF7DAFDB620FDF7F3FD0A20FDF7D4FD1F
:103D3000A220FDF7D1FDC020FDF7EAFD1020FDF720
:103D4000CBFDC120FDF7E4FD1020FDF7C5FDC5202A
:103D5000FDF7DEFD4520FDF7BFFD1520FDF7BCFD9D
:103D6000C720FDF7D5FD9020FDF7B6FD3620FDF705
:103D7000CFFDC820FDF7B0FDF220FDF7C9FD002002
:103D8000FDF7AAFDB020FDF7C3FDC220FDF7A4FD9D
:103D9000B620FDF7BDFD0A20FDF79EFDA720FDF72B
:103DA0009BFD2720FDF798FD0420FDF795FD2A20B7
:103DB000FDF7AEFD0020FDF78FFD0020FDF78CFD27
:103DC0000020FDF789FDEF20FDF786FD2B20FDF794
:103DD0009FFD0020FDF780FD0020FDF77DFD012007
:103DE000FDF77AFD3F20FDF777FDF620FDF790FD0A
:103DF0000120FDF771FD0020FDF76EFD0620FDF7A7
:103E00006BFD2C20FDF784FDC820FDF7CFFD26209B
:103E1000FDF77EFD0120FDF75FFDE020FDF778FD59
:103E20000F20FDF759FD2920FDF756FD2420FDF751
:103E300053FD0C20FDF750FD0E20FDF74DFD092030
:103E4000FDF74AFD4E20FDF747FD7820FDF744FDC4
:103E50003C20FDF741FD0920FDF73EFD1320FDF755
:103E60003BFD0520FDF738FD1720FDF735FD11203E
:103E7000FDF732FD0020FDF72FFDE120FDF748FDA5
:103E80000020FDF729FD1620FDF726FD1B20FDF77C
:103E900023FD0420FDF720FD1120FDF71DFD072067
:103EA000FDF71AFD3120FDF717FD3320FDF714FD56
:103EB0004220FDF711FD0520FDF70EFD0C20FDF75A
:103EC0000BFD0A20FDF708FD2820FDF705FD2F203A
:103ED000FDF702FD0F20FDF7FFFC1120FDF718FD97
:103EE000C820FDF763FD2920FDF712FDBDE808405D
:103EF0002C20FDF70DBD08B5FDF7DEFC0321D32016
:103F0000FDF722FD80B208BD10B5C4B20222032124
:103F10002046FDF787FC0A20FDF7CCFC2046002256
:103F20000321FDF77FFCBDE810400220FDF7C2BC75
:103F300038B50446E4B2FDF773FC00212046FDF7D6
:103F400089FC012105462046FDF784FC40EA052056
:103F500080B238BD10B5C4B240212046FDF77AFCCE
:103F6000030607D54C212046FDF774FC003818BF26
:103F7000012010BD01224B212046FDF753FC2046B5
:103F800000224B21FDF74EFC0020F2E773B504231D
:103F9000C4B20E461546D7210DEB03022046FDF7AD
:103FA00073FC019B1BBA1A0DC3F30B23328020460E
:103FB0002B8001224B21FDF735FC00224B212046AE
:103FC000FDF730FC02B070BD10B50A4A1378984274
:103FD00004460DD0517888420AD00BB141B9012373
:103FE000D454FDF71DFC2046BDE81040FFF78CBF00
:103FF00010BD00BFF018002010B5C4B20921204642
:10400000FDF728FC40F00102D2B220460921BDE8AC
:104010001040FDF707BC10B5C4B209212046FDF7DA
:1040200019FC092100F0FE022046BDE81040FDF712
:10403000F9BB38B5C4B20D4620460A21FDF70AFC8B
:1040400040EA0502D2B220460A21BDE83840FDF719
:10405000E9BB10B50446FDF7E4FB20461F21FFF73E
:10406000E8FF2046BDE81040FFF7C6BF38B5C4B230
:104070000D4620460A21FDF7EDFB20EA0502D2B2EB
:1040800020460A21BDE83840FDF7CCBB10B50446F8
:10409000FFF7C1FF20461F21BDE81040FFF7E6BF34
:1040A00010B5C0B20C460B21FDF7D4FB204010BD6B
:1040B0001F21FFF7F5BF0A46C0B20B21FDF7B2BBC7
:1040C0001F21FFF7F8BF38B5C4B20D4620461721AF
:1040D000FDF7C0FB20EA0502D2B220461721BDE859
:1040E0003840FDF79FBB70B5C4B206460421204698
:1040F000FDF7B0FB042100F0FB0205462046FDF76A
:1041000091FB3046F021FFF7DEFF05F0F802204674
:104110000421FDF787FB492220212046FDF782FB81
:104120000220FDF7C7FB204601222121FDF77AFB83
:1041300020469A224121FDF775FB204601224A21A3
:10414000FDF770FB204601224B21FDF76BFB20465B
:1041500000224B21FDF766FB204601225621FDF788
:1041600061FB204601225821FDF75CFB204601221D
:104170004021FDF757FB2046FF220B21FDF752FBA4
:10418000BDE870400220FDF795BB0000054BD3F859
:10419000882042F47002C3F888204FF000629A60D1
:1041A000704700BF00ED00E008B50B4B1A6842F401
:1041B00000721A601A6842F480621A601A6842F447
:1041C00080721A60032000F045FA0020FDF788FE97
:1041D000FDF7FAFB002008BD003C0240034A044BF7
:1041E00011681B780B441360704700BFF41800205F
:1041F00078000020014B1868704700BFF4180020B9
:1042000038B50446FFF7F6FF631C1CBF054B1B784F
:10421000054618BFE418FFF7EDFF431BA342FAD38E
:1042200038BD00BF7800002038B50446002800F0F3
:104230009B80056C25B9FDF7FFFB656484F83C5055
:10424000236CDB0600F18E80236C23F4885323F06B
:10425000020343F002032364444B5A6822F44032C1
:104260005A605A6861680A435A60236821695A682B
:1042700022F480725A605A6842EA01225A605A68EF
:10428000A16822F040725A605A680A435A609A68DC
:10429000E16822F400629A609A680A439A6034499D
:1042A000A26A8A4252D0996821F070619960996837
:1042B0000A439A609A68E16A22F040529A609A68CA
:1042C0000A439A609A6822F002029A609A68217EF4
:1042D00042EA41029A6094F82020002A3ED05A68AF
:1042E000616A42F400625A605A6822F460425A607D
:1042F0005A68013942EA41325A60DA6AE16922F4C5
:104300007002DA62DA6A013942EA0152DA629A68C4
:1043100022F400729A609A6894F8301042EA4122BE
:104320009A609A68616922F480629A609A680020B3
:1043300042EA81229A606064236C23F0030343F015
:1043400001032364002384F83C3038BD9A6822F0CE
:1043500070629A609A6822F04052B2E75A6822F47A
:104360000062C9E70120EDE70120EEE700230140EC
:104370000100000F82B00023019390F83C30012B24
:1043800069D0012380F83C3003689A68D2070BD5C6
:104390009A68D1071AD4036C43F010030364436C8A
:1043A00043F0010343644CE09A682C4942F0010257
:1043B0009A602B4A1268B2FBF1F202EB42020192C0
:1043C000019A002AE4D0019A013AF8E7026C22F43B
:1043D000E06222F0010242F4807202645A685205DF
:1043E00041BF026C22F4405242F480520264026CDB
:1043F00012F480521CBF426C22F00602426400227A
:1044000080F83C206FF022021A60164A516811F0C1
:104410001F0F15491CD18B4207D001F580718B42CB
:104420000CD1526812F01F0F0BD19A6812F0405F46
:1044300007D19A6842F080429A6002E00B498B42B1
:1044400002D0002002B07047526812F0100FEBE764
:104450008B42F6D1E9E70220F4E700BF40420F00AB
:104460007400002000230140002001400022014090
:1044700003689A68520570B504460D460BD59B68D3
:10448000DE0508D5036C43F020030364002380F8A5
:104490003C30012070BDFFF7ADFE064623681A6868
:1044A00091070CD56FF012021A60226C42F4007270
:1044B00022649A6812F0405F17D00020EAE7681C77
:1044C000EDD065B923681B6813F00203E6D1226CB6
:1044D00084F83C3042F0040222640320DAE7FFF75C
:1044E00089FE801BA842EDD8D8E7227E002AE4D1BD
:1044F000DA6A12F4700F02D09B685A05DDD4236C7F
:1045000023F480732364236CDB04D6D4236C43F040
:1045100001032364D1E70368D86C7047F7B5002323
:10452000019390F83C30012B054600F08680012372
:1045300080F83C3008682B688E68092884B233D92B
:1045400004EB4402DF681E3A4FF0070C0CFA02FC41
:1045500027EA0C07DF60DF6806FA02F23A43DA6006
:104560004968062901EB81022DD8596B053A1F26AF
:10457000964021EA06015963596B04FA02F20A4394
:104580005A632F4A93420AD1122837D12D4B5A68C9
:1045900022F400025A605A6842F480025A600020F5
:1045A00085F83C0003B0F0BD1A6900EB400C07270A
:1045B00007FA0CF722EA07021A611A6906FA0CF6E2
:1045C00016431E61CCE70C294FF01F010BD81E6B60
:1045D000233A914026EA01011963196B04FA02F2A9
:1045E0000A431A63CDE7DE6A413A914026EA0101A7
:1045F000D962D96A94400C43DC62C2E7124B9842FC
:1046000001D01128CBD10F4B5A6822F480025A6096
:104610005A6842F400025A600B4B9842BFD10B4BD0
:104620000B4A1B68B3FBF2F30A2253430193019B2D
:10463000002BB4D0019B013BF8E70220B2E700BF9A
:1046400000200140002301401200001074000020EF
:1046500040420F000749CA6822F4E06203021204D4
:1046600003F4E063120C134343F0BF6343F40033DD
:10467000CB60704700ED00E0164B30B5DC68C4F34A
:104680000224C4F10703251D042B28BF0423062D93
:104690004FF0FF358CBF033C002405FA03F321EAF9
:1046A0000303A54022EA0502A340002843EA0203CF
:1046B000ACBF00F16040084A4FEA0313B8BF00F0F6
:1046C0000F00DBB2AABF00F56140135480F800333D
:1046D00030BD00BF00ED00E014ED00E0002807DB76
:1046E0004109044A00F01F000123834042F82130B1
:1046F000704700BF00E100E010B5044650B14379B7
:1047000003F0FF0213B90271FDF77EF90123637113
:10471000002010BD0120FCE710B5044630B390F82E
:10472000393003F0FF021BB980F83820FDF7DCF9BF
:1047300022686168022384F83930136823F4403317
:104740000B431360536BA16823F007030B435363C0
:10475000136CE16823F47F5323F03F030B4313648E
:1047600000200123E06384F8393010BD0120FCE70C
:1047700070477047036870B55E681D68F2070446AD
:1047800014D5E90512D51A6822F480721A60C26B3A
:1047900042F00102C26301229A60042380F839309A
:1047A000002380F83830436903B19847B20616D524
:1047B000AB0414D523681A6822F400521A60202230
:1047C0009A60E36B43F00203E363042384F8393017
:1047D000002384F8383063690BB1204698473007CE
:1047E00016D5290514D523681A6822F400621A60C8
:1047F00008229A60E36B43F00403E363042384F824
:104800003930002384F8383063690BB1204698476B
:1048100072070BD56B0509D523681A6822F48062EC
:104820001A6004229A602046FFF7A2FFB00714D551
:10483000A90512D523681A6822F400721A600222B0
:104840009A60E36BE363012384F83930002384F832
:10485000383023690BB120469847F20613D5EB0494
:1048600011D523681A6822F480521A6010229A60C7
:10487000E36BE363012384F83930002384F8383094
:104880002046FFF776FF70BDF0B590F83820012A7A
:1048900003464FF002002BD0012283F8382083F822
:1048A000390003EB0112D2E90740556A174F44EA79
:1048B0000040093C012C9CBF05F07F4210434FEAA9
:1048C00001161A6888BF40EA056091B9516A3940FB
:1048D00001435162012C9969916103D8596A21F011
:1048E0007F4191620122002083F8392083F838004B
:1048F000F0BDD16939400143D1619919012C896911
:1049000011619CBF25F07F451562EBE7F0FFFC00CD
:104910002DE9F74FDFF8BC916C4A00230D680124A4
:104920009C4004EA0506AC4340F0B7804D6803277D
:1049300005F003044FEA430807FA08FC671E012F3D
:104940006FEA0C0C34D8876807EA0C0ECF6807FAB8
:1049500008F747EA0E078760476827EA060EC5F39F
:1049600000179F4047EA0E074760C76807EA0C0E2A
:104970008F6807FA08F747EA0E07022CC76019D1BB
:104980004FEAD30A00EB8A0A03F0070BDAF820702B
:104990004FEA8B0B4FF00F0E0EFA0BFE27EA0E0EAE
:1049A0000F6907FA0BF747EA0E07CAF8207001E013
:1049B000032CDAD1076804FA08F407EA0C073C4331
:1049C00015F4403F046068D000240194D9F84440B5
:1049D00044F48044C9F84440D9F8444023F0030724
:1049E00007F1804704F4804407F59C37019403F0F5
:1049F000030C019CD7F808E04FEA8C0C0F2404FA52
:104A00000CF42EEA040E324CA0424DD004F5806422
:104A1000A0424BD004F58064A04249D004F58064E4
:104A2000A04247D004F58064A04245D004F58064DC
:104A3000A04243D004F58064A04241D004F58064D4
:104A4000A0423FD004F58064A0423DD004F58064CC
:104A5000A04214BF0A24092404FA0CF444EA0E0408
:104A6000BC609468F74315F4801F0CBF3C4034438E
:104A70009460D46815F4001F0CBF3C403443D460EC
:104A8000546815F4003F0CBF3C4034435460146834
:104A9000ED0354BF3C40344314600133102B7FF4CA
:104AA0003DAF03B0BDE8F08F0024D5E70124D3E784
:104AB0000224D1E70324CFE70424CDE70524CBE784
:104AC0000624C9E70724C7E70824C5E7003C0140DE
:104AD00000000240003802400369194214BF01205F
:104AE000002070470AB1816170470904FBE7436900
:104AF00001EA030221EA030141EA024181617047B0
:104B000070470000044A5169014208B502D0506163
:104B1000FFF7F6FF08BD00BF003C014001684B698C
:104B200013F480634FF0000210D06FF480634B6188
:104B30002023026380F83D3080F83E20036C80F82B
:104B40003C2043F00403036401207047184670477B
:104B50002DE9F84606460F4691461D464FEA114A92
:104B60003368BAF1010F0CBF5C699C6927EA040441
:104B7000A4B2B4FA84F46409A14501D0002017E07E
:104B80006A1CEED0FFF736FB089BC01AA84201D87A
:104B9000002DE5D100232022336386F83D2086F8DE
:104BA0003E30326C86F83C3042F020023264012004
:104BB000BDE8F8862DE9F04104460F4616469846B2
:104BC0002568686927EA000080B2C0B16B695A05A0
:104BD00017D52B6843F400732B606FF480636B610F
:104BE00020220023236384F83D2084F83E30236C88
:104BF00043F004032364002384F83C300120BDE823
:104C0000F081731CDDD0FFF7F5FAA0EB0800B0428D
:104C100001D8002ED4D100232022236384F83D2024
:104C200084F83E30236C1343E4E770B504460D4628
:104C3000164623685B691B0601D500201AE0204652
:104C4000FFF76CFFA8B96A1CF3D0FFF7D3FA801BFB
:104C5000A84201D8002DECD100232022236384F840
:104C60003D2084F83E30226C84F83C3042F0200233
:104C70002264012070BD00002DE9F0431546026852
:104C800085B0DDE90C789946136843F480731360AE
:104C90000E463B46CDF8008000224FF0011104463D
:104CA000FFF756FF236838B11B68DB0502D54FF4C8
:104CB00000732364032620E006F0FE061E611A49F5
:104CC00043463A462046FFF775FFA8B9236803908C
:104CD0005A6903929B690393424639462046039BD7
:104CE000FFF7A3FF064660B1236C042B01BF2268C7
:104CF000136843F4007313600126304605B0BDE825
:104D0000F083B9F1010F236802D1EDB21D61F4E720
:104D10002A0A1A61394642462046FFF786FF0028D4
:104D2000E2D12368F1E700BF020001002DE9FF474F
:104D30009A46036815461A6842F480621A601A6837
:104D4000DDE90C7842F480721A600E463B46CDF8DD
:104D5000008000224FF001110446FFF7F9FE23689E
:104D600038B11B68DB0544BF4FF400732364032094
:104D700021E05FFA86F906F0FE061E612B494346E4
:104D80003A462046FFF716FFA0B9236803905A69F8
:104D900003929B690393424639462046039BFFF7E3
:104DA00044FF58B1236C042B01BF2268136843F4FD
:104DB00000731360012004B0BDE8F087BAF1010F61
:104DC00023681AD1EDB242461D6139462046FFF7ED
:104DD0002CFF02460028E5D121680B6843F480735C
:104DE0000B602046CDF800803B464FF00111FFF7E5
:104DF000AFFE226860B11368B4E72A0A1A61394627
:104E000042462046FFF711FF0028CBD12368D9E79F
:104E100049F001031361054943463A462046FFF72E
:104E2000C9FE003818BF0120C5E700BF020001001D
:104E300070B504460D46164623685B695B0701D5CD
:104E400000201AE02046FFF769FEA8B96A1CF3D0DB
:104E5000FFF7D0F9801BA84201D8002DECD1002328
:104E60002022236384F83D2084F83E30226C84F8AD
:104E70003C3042F020022264012070BD70B504462F
:104E80000D46164621684B6913F0400301D00020FF
:104E900011E04A69D2060FD56FF010024A61202254
:104EA000236384F83D2084F83E30236C2364002380
:104EB00084F83C30012070BDFFF79CF9801BA842AC
:104EC00001D8002DDED100232022236384F83D2069
:104ED00084F83E30236C1343E8E7000070B50446C5
:104EE00008B9012070BD90F83D3003F0FF021BB9F6
:104EF00080F83C20FCF71AFE242384F83D30236818
:104F00001A6822F001021A601A6842F400421A601C
:104F10001A6822F400421A6000F070FE3F4B656888
:104F20009D4294BF3E4B3F4B98428CBF00230123D0
:104F3000002BD6D12268394E51683B4BB0FBF3F3BE
:104F400021F03F011943B542516088BF4FF4967676
:104F5000116A88BF734321F03F0184BF4FF47A7612
:104F6000B3FBF6F301330B431362D169431E2B48A5
:104F700021F44F41854221F0FF0132D86D0040F607
:104F8000FC70B3FBF5F30133034242D0C3F30B03D0
:104F90001943D161D4E907301168034321F0C001FE
:104FA0000B4313609168D4E9030321F403410343E5
:104FB00021F0FF010B439360D4E90530D16803432E
:104FC00021F0FF010B43D360136843F0010313602A
:104FD00000202023206484F83D30206384F83E00C4
:104FE00080E7A06850B905EB4505B3FBF5F3013345
:104FF000C3F30B037BB143F40043C9E719206843B3
:10500000B3FBF0F30133C3F30B0323B143F4404389
:10501000BEE70423BCE70123BAE700BFA086010076
:105020007F841E00FF083D0040420F002DE9F7433A
:10503000044699460C9E0F469046FFF7DBF894F81D
:105040003D30202B054603D0022003B0BDE8F0839D
:1050500000903C49192301222046FFF779FD0028E2
:10506000F2D194F83C30012BEED02068012384F873
:105070003C300368D9075EBF036843F00103036057
:10508000036823F400630360212384F83D30402348
:1050900084F83E30002323640A9B6362BDF82C3001
:1050A0006385638D2385284BE3624246CDE9006525
:1050B0004B4639462046FFF7DFFD00282AD0012065
:1050C000C3E7FFF7B2FD40B1236C042B01BF226898
:1050D000136843F400731360F1E7636A27681A46A4
:1050E00012F8011B39616262628D218D013A92B220
:1050F00062857A69481E80B2520720850AD548B178
:105100005A783A6102336362638D013B02399BB284
:1051100021856385238D2A4631462046002BD0D138
:10512000FFF786FE0028CFD12268136843F400738E
:105130001360202384F83D3084F83C0084F83E005E
:1051400083E700BF020010000000FFFF2DE9F043DD
:10515000044687B09946109F0D469046FFF74AF8DF
:1051600094F83D30202B064604D00225284607B08F
:10517000BDE8F08300907649192301222046FFF70D
:10518000E7FC0028F1D194F83C30012BEDD02068E9
:10519000012384F83C300368DB075EBF036843F0FB
:1051A00001030360036823F400630360222384F88F
:1051B0003D30402384F83E30002323640E9B63621D
:1051C000BDF83C306385638D2385624BE3622946DD
:1051D000CDE900764B4642462046FFF7A7FD05463F
:1051E00008B10125C2E7228D2368B2B902905A693D
:1051F00002929A690292029A1A6842F400721A6044
:10520000DFF85481238D002B2CD1202284F83D20FF
:1052100084F83C3084F83E30A8E7012A0AD11A68A5
:1052200022F480621A6003905A6903929A69039289
:10523000039AE1E7022A0ED11A6822F480621A600A
:105240001A6842F400621A6004905A6904929B69D9
:105250000493049BD4E705905A6905929B690593D2
:10526000059BCDE7032B56D8012B15D13246394685
:105270002046FFF703FE0028B3D123681A69636A4A
:105280001A70636A01336362238D013B2385638D4A
:10529000013B9BB26385B5E7022B00963B464FF07E
:1052A00000024146204619D1FFF752FC002898D150
:1052B00023681A6842F400721A601A69636A1A70E5
:1052C000626A531C6362238D013B2385638D013B1E
:1052D0009BB2638523681B695370D2E7FFF738FCE4
:1052E000024600287FF47DAF2368196821F48061AD
:1052F00019601969636A1970636A01336362238DE7
:10530000013B2385638D013B9BB26385414600963B
:105310003B462046C8E7324639462046FFF7AEFDF9
:1053200000287FF45EAF23681A69636A1A70626AA4
:10533000531C6362238D013B2385638D013B9BB22C
:1053400063852368596949077FF55CAFC3E700BFF0
:10535000020010000000FFFF0400010010B590F8EB
:105360003D30202BDCB216D1242380F83D30036879
:105370001A6822F001021A605A6A22F010025A6278
:105380005A6A114359621A6842F001021A6080F8A1
:105390003D40002010BD0220FCE730B590F83D30C4
:1053A000202BDCB216D10268242380F83D3013682C
:1053B00023F001031360556A4FF6F0732B400B4343
:1053C0009BB25362136843F00103136080F83D40C1
:1053D000002030BD0220FCE70068D1F800C0D201F7
:1053E000843283182DE9F043C6685D684C68D1F8B3
:1053F000189005F470455D60C5680CF10107C5F3B0
:105400000B45C6F30B463D44264445EA06455D6020
:10541000C668CD68C6F30A062E449D6805F470453B
:105420009D60C7688D68C7F30A0701353D4445EAAA
:1054300006459D601D690E6925F007051D614FF049
:10544000000E1E619D6991F8327091F83180C3F8A9
:1054500018E091F8305045EA096545EA082545EA23
:1054600007459D615D6925F0FF055D614D695D61E1
:10547000DD6925F4E06525F00705DD61D1E9075711
:105480003D43DD619D6A4D6AC3F828E09D621EB30D
:10549000012E23D0B51E022D22D9072E14BF0125BF
:1054A0000225DE6A06F0E026DE62A4EB0C048E6ABA
:1054B000C96A6C436E43033444EA0644DC621C6BE5
:1054C00024F4FF6424F007041C631963835843F039
:1054D00001038350BDE8F0830425E2E70325E0E7FC
:1054E0000225DEE738B50446002863D090F8A130E5
:1054F00003F0FF021BB980F8A020FCF773FB022326
:1055000084F8A13023689A6922F070429A61D4E944
:1055100001200243E06899690243206902430A437B
:105520009A619A68244960690A409A609A6842EAD6
:105530000042A06902439A60DA68E0690A40DA60D2
:10554000DA6842EA0042206A0243DA601A69606A55
:105550000A401A611A6942EA0042A06A02431A61CB
:105560005A690A405A615A69E16A42EA0142216B6A
:105570000A435A61DA6A94F8350094F8361002F05A
:105580007F42DA62DD6A94F834202A4342EA00223C
:1055900042EA0142DA625A6B42F006025A639A69A1
:1055A00042F001029A6100200123C4F8A40084F8AB
:1055B000A13038BD0120FCE700F800F070477047CB
:1055C000036870B59E6B5D6B7207044614D569075E
:1055D00012D55A6B22F004025A630422DA63D0F81F
:1055E000A43043F00103C0F8A430002380F8A120C8
:1055F00080F8A030FFF7E2FFB20716D5AB0714D54D
:1056000023685A6B22F002025A630222DA63D4F84A
:10561000A4301343C4F8A430042384F8A130002339
:1056200084F8A0302046FFF7C9FFF00710D5E9073E
:105630000ED523685A6B22F001025A630122DA6305
:10564000002384F8A12084F8A0302046FBF7D4FD85
:10565000320711D52B070FD523685A6B22F00802A9
:105660005A630822DA63012384F8A130002384F806
:10567000A0302046FFF7A3FF70BD2DE9F04190F860
:10568000A030012B06460F4694464FF002001FD073
:105690004FF0010886F8A08086F8A10034240D465A
:1056A00004FB02640FCD38340FC40FCD0FC40FCDEF
:1056B0000FC42B682360304662463946FFF78CFEE4
:1056C00033680020C3F8248086F8A18086F8A00003
:1056D000BDE8F08190F8A020012A03464FF00200B7
:1056E00012D01A6883F8A100506B20F001005063BB
:1056F00006480164516B41F0010151630020012211
:1057000083F8A12083F8A000704700BF0068014023
:105710002DE9F341044640B30368DE0710D4236843
:105720009D075BD42368190700F19D8023685A0701
:1057300000F1BD80A369002B40F0248100202CE003
:105740008D4B9A6802F00C02042A07D09A6802F086
:105750000C02082A0BD15B68590208D5864B1B68DE
:105760009A03DCD56368002BD9D1012015E063686A
:10577000814DB3F5803F13D12B6843F480332B6008
:10578000FEF738FD7C4E054633689B03C7D4FEF711
:1057900031FD401B6428F7D9032002B0BDE8F08139
:1057A000B3F5A02F04D12B6843F480232B60E3E7EB
:1057B0002A6822F480322A602A6822F480222A6031
:1057C000002BDDD1FEF716FD06462B689F03A6D5FC
:1057D000FEF710FD801B6428F7D9DDE7664B9A6859
:1057E00012F00C0F07D09A6802F00C02082A11D1AF
:1057F0005B685D020ED4604A1368990702D5E368BE
:10580000012BB2D11368216923F0F80343EAC103E5
:10581000136087E7E268594BB2B101221A60FEF7C4
:10582000E9FC554D06462B689B0707D52B68226976
:1058300023F0F80343EAC2032B6073E7FEF7DAFCB8
:10584000801B0228EFD9A7E71A60FEF7D3FC4A4E67
:10585000054633689F077FF565AFFEF7CBFC401B1D
:105860000228F6D998E76269444B82B10122C3F855
:10587000802EFEF7BFFC404E0546736F9B073FF539
:1058800055AFFEF7B7FC401B0228F6D984E7C3F8F2
:10589000802EFEF7AFFC384E0546736F9F077FF5ED
:1058A00045AFFEF7A7FC401B0228F6D974E7324B40
:1058B0001A6C12F0805228D101921A6C42F0805278
:1058C0001A641B6C03F080530193019B01272C4D3C
:1058D0002B68D8051BD5A368274D012B27D12B6F2B
:1058E00043F001032B67FEF785FC234E054641F28A
:1058F0008838336F9A0739D5002F3FF41BAF1E4A03
:10590000136C23F08053136414E70027DFE72B6840
:1059100043F480732B60FEF76DFC06462B68D905B7
:10592000D9D4FEF767FC801B0228F7D934E7052B92
:1059300004D12B6F43F004032B67D0E72A6F22F0CA
:1059400001022A672A6F22F004022A67002BCAD1BB
:10595000FEF750FC41F2883806462B6F9B07CBD5EB
:10596000FEF748FC801B4045F7D915E7FEF742FCDF
:10597000401B4045BDD90FE70038024000004742B8
:1059800000700040374DAA6802F00C02082A3ED091
:10599000022B354B4FF000021A662BD1FEF72AFC82
:1059A00006462B6899011FD4D4E907321343626A73
:1059B00043EA8213E26A43EA0263A26A5208013AA6
:1059C00043EA02436B60284B264D01221A66FEF71C
:1059D00011FC04462B689A013FF5B0AEFEF70AFCB5
:1059E000001B0228F6D9D7E6FEF704FC801B02282C
:1059F000D7D9D1E6FEF7FEFB04462B689B017FF565
:105A00009DAEFEF7F7FB001B0228F6D9C4E6012B7A
:105A10003FF4ABAE6B68E26903F4800191427FF41E
:105A2000A4AE216A03F03F028A427FF49EAE616A0F
:105A300047F6C0721A40B2EB811F7FF496AEA26A9D
:105A4000520803F44031013AB1EB024F7FF48DAEBE
:105A5000E26A03F07063B3EB026F14BF0120002011
:105A60009BE600BF0038024000004742134908B5DA
:105A70008B6803F00C03042B1CD0082B1CD14A6844
:105A80004B68496813F4800314BF0D480D48C1F3F7
:105A9000881118BF002302F03F02A1FB0001FAF7B2
:105AA000F7FB064B5B68C3F3014301335B00B0FBBC
:105AB000F3F008BD0248FCE70248FAE7003802406C
:105AC00000127A000024F4002DE9F0410D4604464E
:105AD00010B90120BDE8F081434B1A6802F00F02B3
